{
  "transactions": [
    {
      "hash": "0xbf725604e16a00f4c6e602cdd4c3ce13da53db84cd04e3c8026ada5bf3ca1e0a",
      "transactionType": "CALL",
      "contractName": "XERC20",
      "contractAddress": "0x81A3D0677aEf7FF6fbF40e874dDD5E8A94B77ca0",
      "function": "setLimits(address,uint256,uint256)",
      "arguments": [
        "0x3a943E8b77D59D29804c2afa218d7fC7E7D5Adca",
        "10000000000000000000000000000000",
        "10000000000000000000000000000000"
      ],
      "transaction": {
        "type": "0x02",
        "from": "0xfadede2cfbfa7443497acacf76cfc4fe59112dbb",
        "to": "0x81a3d0677aef7ff6fbf40e874ddd5e8a94b77ca0",
        "gas": "0x49198",
        "value": "0x0",
        "data": "0xa08d56540000000000000000000000003a943e8b77d59d29804c2afa218d7fc7e7d5adca000000000000000000000000000000000000007e37be2022c0914b2680000000000000000000000000000000000000000000007e37be2022c0914b2680000000",
        "nonce": "0x65",
        "accessList": []
      },
      "additionalContracts": [],
      "isFixedGasLimit": false
    }
  ],
  "receipts": [
    {
      "transactionHash": "0xbf725604e16a00f4c6e602cdd4c3ce13da53db84cd04e3c8026ada5bf3ca1e0a",
      "transactionIndex": "0xa",
      "blockHash": "0xd7b4cca8334e45e4c875855cf6d357d7d4923d5babf6791b103d4a0080b8cdaa",
      "blockNumber": "0x12ed4dd",
      "from": "0xFaDede2cFbfA7443497acacf76cFc4Fe59112DbB",
      "to": "0x81A3D0677aEf7FF6fbF40e874dDD5E8A94B77ca0",
      "cumulativeGasUsed": "0xc2a6a",
      "gasUsed": "0x31fb9",
      "contractAddress": null,
      "logs": [
        {
          "address": "0x81A3D0677aEf7FF6fbF40e874dDD5E8A94B77ca0",
          "topics": [
            "0x93f3bbfe8cfb354ec059175107653f49f6eb479a8622a7d83866ea015435c944",
            "0x0000000000000000000000003a943e8b77d59d29804c2afa218d7fc7e7d5adca"
          ],
          "data": "0x000000000000000000000000000000000000007e37be2022c0914b2680000000000000000000000000000000000000000000007e37be2022c0914b2680000000",
          "blockHash": "0xd7b4cca8334e45e4c875855cf6d357d7d4923d5babf6791b103d4a0080b8cdaa",
          "blockNumber": "0x12ed4dd",
          "transactionHash": "0xbf725604e16a00f4c6e602cdd4c3ce13da53db84cd04e3c8026ada5bf3ca1e0a",
          "transactionIndex": "0xa",
          "logIndex": "0xe",
          "removed": false
        }
      ],
      "status": "0x1",
      "logsBloom": "0x00100000000000000000000000000000000000000800000000000000000000000000000000000000000000000000000000000000000000000000000000000000000000000000000000000000000040000020000000000000000000000010000000000000000000000000000000000000000000000000000000000000000000000000000000000000000000000000000000000000000000000000000000000022000000000000000000000000000000000000000000000000000000000000000000000000000000000000000000000000000000000000040000000000000000000000000000000000000010000000000000000000000000000000000000000000",
      "type": "0x2",
      "effectiveGasPrice": "0x1d94f5511"
    }
  ],
  "libraries": [],
  "pending": [],
  "returns": {},
  "timestamp": 1715425363,
  "chain": 1,
  "commit": "34fca4f"
}