{
  "transactions": [
    {
      "hash": "0x529ff53488842757d5f7702d7c9fdf0d8ee118d1aa60639450ab4c2f753e25d4",
      "transactionType": "CALL",
      "contractName": "XERC20",
      "contractAddress": "0x81A3D0677aEf7FF6fbF40e874dDD5E8A94B77ca0",
      "function": "setLimits(address,uint256,uint256)",
      "arguments": [
        "0x77680848810fA3410983abDC5FbF23Ee3cF9E3f1",
        "10000000000000000000000000000000",
        "10000000000000000000000000000000"
      ],
      "transaction": {
        "type": "0x02",
        "from": "0xfadede2cfbfa7443497acacf76cfc4fe59112dbb",
        "to": "0x81a3d0677aef7ff6fbf40e874ddd5e8a94b77ca0",
        "gas": "0x49198",
        "value": "0x0",
        "data": "0xa08d565400000000000000000000000077680848810fa3410983abdc5fbf23ee3cf9e3f1000000000000000000000000000000000000007e37be2022c0914b2680000000000000000000000000000000000000000000007e37be2022c0914b2680000000",
        "nonce": "0x68",
        "accessList": []
      },
      "additionalContracts": [],
      "isFixedGasLimit": false
    },
    {
      "hash": "0xef9a9fb9750715395bb7351d1545210e662a463e82781bad4001c7faddff950b",
      "transactionType": "CALL",
      "contractName": "CCIPxERC20Bridge",
      "contractAddress": "0x77680848810fA3410983abDC5FbF23Ee3cF9E3f1",
      "function": "addXERC20ForOriginChain(uint64,address,address)",
      "arguments": [
        "15971525489660198786",
        "0x6e05b1c7F694Fc383067164a33573b05Ba0500e8",
        "0x81A3D0677aEf7FF6fbF40e874dDD5E8A94B77ca0"
      ],
      "transaction": {
        "type": "0x02",
        "from": "0xfadede2cfbfa7443497acacf76cfc4fe59112dbb",
        "to": "0x77680848810fa3410983abdc5fbf23ee3cf9e3f1",
        "gas": "0x10ce1",
        "value": "0x0",
        "data": "0xc9781cbc000000000000000000000000000000000000000000000000dda641cfe44aff820000000000000000000000006e05b1c7f694fc383067164a33573b05ba0500e800000000000000000000000081a3d0677aef7ff6fbf40e874ddd5e8a94b77ca0",
        "nonce": "0x69",
        "accessList": []
      },
      "additionalContracts": [],
      "isFixedGasLimit": false
    },
    {
      "hash": "0x6cf0f54e8f56a227257b8a085534536508676be8f9b18e67bb56d16719c31e87",
      "transactionType": "CALL",
      "contractName": "CCIPxERC20Bridge",
      "contractAddress": "0x77680848810fA3410983abDC5FbF23Ee3cF9E3f1",
      "function": "addXERC20Config(address,address,address)",
      "arguments": [
        "0x81A3D0677aEf7FF6fbF40e874dDD5E8A94B77ca0",
        "0x7D225c4cc612E61d26523B099b0718d03152eDEf",
        "0x50C7CB0FAC5d72cBF4917E0c013f4785308903D7"
      ],
      "transaction": {
        "type": "0x02",
        "from": "0xfadede2cfbfa7443497acacf76cfc4fe59112dbb",
        "to": "0x77680848810fa3410983abdc5fbf23ee3cf9e3f1",
        "gas": "0x18bfb",
        "value": "0x0",
        "data": "0xaf3aa7d000000000000000000000000081a3d0677aef7ff6fbf40e874ddd5e8a94b77ca00000000000000000000000007d225c4cc612e61d26523b099b0718d03152edef00000000000000000000000050c7cb0fac5d72cbf4917e0c013f4785308903d7",
        "nonce": "0x6a",
        "accessList": []
      },
      "additionalContracts": [],
      "isFixedGasLimit": false
    },
    {
      "hash": "0x6973f812bba6eee88e3064e012ead9a0ddf68508de188ffaea8706a4705a2d50",
      "transactionType": "CALL",
      "contractName": "CCIPxERC20Bridge",
      "contractAddress": "0x77680848810fA3410983abDC5FbF23Ee3cF9E3f1",
      "function": "addBridgeForChain(uint64,address)",
      "arguments": [
        "15971525489660198786",
        "0x740De8fE9D75F5eD5585C1e8e5Fd6971844B5689"
      ],
      "transaction": {
        "type": "0x02",
        "from": "0xfadede2cfbfa7443497acacf76cfc4fe59112dbb",
        "to": "0x77680848810fa3410983abdc5fbf23ee3cf9e3f1",
        "gas": "0xfb27",
        "value": "0x0",
        "data": "0x53fe64f5000000000000000000000000000000000000000000000000dda641cfe44aff82000000000000000000000000740de8fe9d75f5ed5585c1e8e5fd6971844b5689",
        "nonce": "0x6b",
        "accessList": []
      },
      "additionalContracts": [],
      "isFixedGasLimit": false
    }
  ],
  "receipts": [
    {
      "transactionHash": "0x529ff53488842757d5f7702d7c9fdf0d8ee118d1aa60639450ab4c2f753e25d4",
      "transactionIndex": "0xa",
      "blockHash": "0x7b929e84f59b0b89bb676575319ab34c1f60b9cdcb9c00c3d080c579271ebe96",
      "blockNumber": "0x12edc00",
      "from": "0xFaDede2cFbfA7443497acacf76cFc4Fe59112DbB",
      "to": "0x81A3D0677aEf7FF6fbF40e874dDD5E8A94B77ca0",
      "cumulativeGasUsed": "0x1c9a4e",
      "gasUsed": "0x31fb9",
      "contractAddress": null,
      "logs": [
        {
          "address": "0x81A3D0677aEf7FF6fbF40e874dDD5E8A94B77ca0",
          "topics": [
            "0x93f3bbfe8cfb354ec059175107653f49f6eb479a8622a7d83866ea015435c944",
            "0x00000000000000000000000077680848810fa3410983abdc5fbf23ee3cf9e3f1"
          ],
          "data": "0x000000000000000000000000000000000000007e37be2022c0914b2680000000000000000000000000000000000000000000007e37be2022c0914b2680000000",
          "blockHash": "0x7b929e84f59b0b89bb676575319ab34c1f60b9cdcb9c00c3d080c579271ebe96",
          "blockNumber": "0x12edc00",
          "transactionHash": "0x529ff53488842757d5f7702d7c9fdf0d8ee118d1aa60639450ab4c2f753e25d4",
          "transactionIndex": "0xa",
          "logIndex": "0x4b",
          "removed": false
        }
      ],
      "status": "0x1",
      "logsBloom": "0x00100000000000000000000000000000000000000000000000000000000000000000000000000000000000001000000000000000000000000000000000000000000200000000000000000000000040000020000000000000000000000010000000000000000000000000000000000000000000000000000000008000000000000000000000000000000000000000000000000000000000000000000000000000000000000000000000000000000000000000000000000000000000000000000000000000000000000000000000000000000000000000040000000000000000000000000000000000000010000000000000000000000000000000000000000000",
      "type": "0x2",
      "effectiveGasPrice": "0x1acd7b92f"
    },
    {
      "transactionHash": "0xef9a9fb9750715395bb7351d1545210e662a463e82781bad4001c7faddff950b",
      "transactionIndex": "0x12",
      "blockHash": "0x8e36376ac7d8f7c837fe70c5c6b61bebf16579c191a3a3a199df440c5a9f99ba",
      "blockNumber": "0x12edc02",
      "from": "0xFaDede2cFbfA7443497acacf76cFc4Fe59112DbB",
      "to": "0x77680848810fA3410983abDC5FbF23Ee3cF9E3f1",
      "cumulativeGasUsed": "0x17eaa57",
      "gasUsed": "0xb7da",
      "contractAddress": null,
      "logs": [],
      "status": "0x1",
      "logsBloom": "0x00000000000000000000000000000000000000000000000000000000000000000000000000000000000000000000000000000000000000000000000000000000000000000000000000000000000000000000000000000000000000000000000000000000000000000000000000000000000000000000000000000000000000000000000000000000000000000000000000000000000000000000000000000000000000000000000000000000000000000000000000000000000000000000000000000000000000000000000000000000000000000000000000000000000000000000000000000000000000000000000000000000000000000000000000000000",
      "type": "0x2",
      "effectiveGasPrice": "0x1a136e9fd"
    },
    {
      "transactionHash": "0x6cf0f54e8f56a227257b8a085534536508676be8f9b18e67bb56d16719c31e87",
      "transactionIndex": "0xd",
      "blockHash": "0xadc2f1cbf5fa0c529a4b3bab2cf939a66a697c2c6d651f8dca9833e88c51ef39",
      "blockNumber": "0x12edc03",
      "from": "0xFaDede2cFbfA7443497acacf76cFc4Fe59112DbB",
      "to": "0x77680848810fA3410983abDC5FbF23Ee3cF9E3f1",
      "cumulativeGasUsed": "0x1a9cb4",
      "gasUsed": "0x10ec2",
      "contractAddress": null,
      "logs": [],
      "status": "0x1",
      "logsBloom": "0x00000000000000000000000000000000000000000000000000000000000000000000000000000000000000000000000000000000000000000000000000000000000000000000000000000000000000000000000000000000000000000000000000000000000000000000000000000000000000000000000000000000000000000000000000000000000000000000000000000000000000000000000000000000000000000000000000000000000000000000000000000000000000000000000000000000000000000000000000000000000000000000000000000000000000000000000000000000000000000000000000000000000000000000000000000000",
      "type": "0x2",
      "effectiveGasPrice": "0x1befaf2b2"
    },
    {
      "transactionHash": "0x6973f812bba6eee88e3064e012ead9a0ddf68508de188ffaea8706a4705a2d50",
      "transactionIndex": "0x17",
      "blockHash": "0x4988f19bfc5b1d51740def6d218f68582a717672a24b66a31ec643b992d65862",
      "blockNumber": "0x12edc04",
      "from": "0xFaDede2cFbfA7443497acacf76cFc4Fe59112DbB",
      "to": "0x77680848810fA3410983abDC5FbF23Ee3cF9E3f1",
      "cumulativeGasUsed": "0x4a51f2",
      "gasUsed": "0xb5d5",
      "contractAddress": null,
      "logs": [],
      "status": "0x1",
      "logsBloom": "0x00000000000000000000000000000000000000000000000000000000000000000000000000000000000000000000000000000000000000000000000000000000000000000000000000000000000000000000000000000000000000000000000000000000000000000000000000000000000000000000000000000000000000000000000000000000000000000000000000000000000000000000000000000000000000000000000000000000000000000000000000000000000000000000000000000000000000000000000000000000000000000000000000000000000000000000000000000000000000000000000000000000000000000000000000000000",
      "type": "0x2",
      "effectiveGasPrice": "0x1adc9aacd"
    }
  ],
  "libraries": [],
  "pending": [],
  "returns": {},
  "timestamp": 1715447488,
  "chain": 1,
  "commit": "6b09d11"
}