{
  "transactions": [
    {
      "hash": "0xdda94d26b73beeddc9b0fe08c654900014b832f44271495a1b9671d6ded28792",
      "transactionType": "CALL",
      "contractName": "CCIPxERC20Bridge",
      "contractAddress": "0xDDFC70d9932ea7297724b621CcCb17bFF96995DD",
      "function": "addXERC20ForOriginChain(uint64,address)",
      "arguments": [
        "5009297550715157269",
        "0x81A3D0677aEf7FF6fbF40e874dDD5E8A94B77ca0"
      ],
      "transaction": {
        "type": "0x02",
        "from": "0xfadede2cfbfa7443497acacf76cfc4fe59112dbb",
        "to": "0xddfc70d9932ea7297724b621cccb17bff96995dd",
        "gas": "0xfbc2",
        "value": "0x0",
        "data": "0xe8ce3b0d00000000000000000000000000000000000000000000000045849994fc9c7b1500000000000000000000000081a3d0677aef7ff6fbf40e874ddd5e8a94b77ca0",
        "nonce": "0x27",
        "accessList": []
      },
      "additionalContracts": [],
      "isFixedGasLimit": false
    },
    {
      "hash": "0x87fb5ee4c44c8758fb631b2ca5c6233fdc1645d41776a788715db14c4c92df46",
      "transactionType": "CALL",
      "contractName": "CCIPxERC20Bridge",
      "contractAddress": "0xDDFC70d9932ea7297724b621CcCb17bFF96995DD",
      "function": "addBridgeForChain(uint64,address)",
      "arguments": [
        "5009297550715157269",
        "0x3a943E8b77D59D29804c2afa218d7fC7E7D5Adca"
      ],
      "transaction": {
        "type": "0x02",
        "from": "0xfadede2cfbfa7443497acacf76cfc4fe59112dbb",
        "to": "0xddfc70d9932ea7297724b621cccb17bff96995dd",
        "gas": "0xfb27",
        "value": "0x0",
        "data": "0x53fe64f500000000000000000000000000000000000000000000000045849994fc9c7b150000000000000000000000003a943e8b77d59d29804c2afa218d7fc7e7d5adca",
        "nonce": "0x28",
        "accessList": []
      },
      "additionalContracts": [],
      "isFixedGasLimit": false
    }
  ],
  "receipts": [
    {
      "transactionHash": "0xdda94d26b73beeddc9b0fe08c654900014b832f44271495a1b9671d6ded28792",
      "transactionIndex": "0x1",
      "blockHash": "0x9fe56a58aa2215abbeafb89b08b3f993a3e151c30c984fe5a84c4c6804ddf632",
      "blockNumber": "0xda7872",
      "from": "0xFaDede2cFbfA7443497acacf76cFc4Fe59112DbB",
      "to": "0xDDFC70d9932ea7297724b621CcCb17bFF96995DD",
      "cumulativeGasUsed": "0x16190",
      "gasUsed": "0xb645",
      "contractAddress": null,
      "logs": [],
      "status": "0x1",
      "logsBloom": "0x00000000000000000000000000000000000000000000000000000000000000000000000000000000000000000000000000000000000000000000000000000000000000000000000000000000000000000000000000000000000000000000000000000000000000000000000000000000000000000000000000000000000000000000000000000000000000000000000000000000000000000000000000000000000000000000000000000000000000000000000000000000000000000000000000000000000000000000000000000000000000000000000000000000000000000000000000000000000000000000000000000000000000000000000000000000",
      "type": "0x2",
      "effectiveGasPrice": "0xb4ff8bb2"
    },
    {
      "transactionHash": "0x87fb5ee4c44c8758fb631b2ca5c6233fdc1645d41776a788715db14c4c92df46",
      "transactionIndex": "0x2",
      "blockHash": "0x9fe56a58aa2215abbeafb89b08b3f993a3e151c30c984fe5a84c4c6804ddf632",
      "blockNumber": "0xda7872",
      "from": "0xFaDede2cFbfA7443497acacf76cFc4Fe59112DbB",
      "to": "0xDDFC70d9932ea7297724b621CcCb17bFF96995DD",
      "cumulativeGasUsed": "0x21765",
      "gasUsed": "0xb5d5",
      "contractAddress": null,
      "logs": [],
      "status": "0x1",
      "logsBloom": "0x00000000000000000000000000000000000000000000000000000000000000000000000000000000000000000000000000000000000000000000000000000000000000000000000000000000000000000000000000000000000000000000000000000000000000000000000000000000000000000000000000000000000000000000000000000000000000000000000000000000000000000000000000000000000000000000000000000000000000000000000000000000000000000000000000000000000000000000000000000000000000000000000000000000000000000000000000000000000000000000000000000000000000000000000000000000",
      "type": "0x2",
      "effectiveGasPrice": "0xb4ff8bb2"
    }
  ],
  "libraries": [],
  "pending": [],
  "returns": {},
  "timestamp": 1715424716,
  "chain": 8453,
  "commit": "34fca4f"
}