{
  "transactions": [
    {
      "hash": "0x5e7ab0b238056963cfc5b4c3acd1fd5948fc26ebbec62de9eaa574dda8493917",
      "transactionType": "CALL",
      "contractName": "XERC20",
      "contractAddress": "0x6e05b1c7F694Fc383067164a33573b05Ba0500e8",
      "function": "setLimits(address,uint256,uint256)",
      "arguments": [
        "0xDDFC70d9932ea7297724b621CcCb17bFF96995DD",
        "10000000000000000000000000000000",
        "10000000000000000000000000000000"
      ],
      "transaction": {
        "type": "0x02",
        "from": "0xfadede2cfbfa7443497acacf76cfc4fe59112dbb",
        "to": "0x6e05b1c7f694fc383067164a33573b05ba0500e8",
        "gas": "0x49198",
        "value": "0x0",
        "data": "0xa08d5654000000000000000000000000ddfc70d9932ea7297724b621cccb17bff96995dd000000000000000000000000000000000000007e37be2022c0914b2680000000000000000000000000000000000000000000007e37be2022c0914b2680000000",
        "nonce": "0x29",
        "accessList": []
      },
      "additionalContracts": [],
      "isFixedGasLimit": false
    }
  ],
  "receipts": [
    {
      "transactionHash": "0x5e7ab0b238056963cfc5b4c3acd1fd5948fc26ebbec62de9eaa574dda8493917",
      "transactionIndex": "0x1",
      "blockHash": "0xfb782ac2e8cfceb9bedc3b65d64eb47b0921fd6399062c0ecbaa7d2853cfdb4f",
      "blockNumber": "0xda79ca",
      "from": "0xFaDede2cFbfA7443497acacf76cFc4Fe59112DbB",
      "to": "0x6e05b1c7F694Fc383067164a33573b05Ba0500e8",
      "cumulativeGasUsed": "0x3cb04",
      "gasUsed": "0x31fb9",
      "contractAddress": null,
      "logs": [
        {
          "address": "0x6e05b1c7F694Fc383067164a33573b05Ba0500e8",
          "topics": [
            "0x93f3bbfe8cfb354ec059175107653f49f6eb479a8622a7d83866ea015435c944",
            "0x000000000000000000000000ddfc70d9932ea7297724b621cccb17bff96995dd"
          ],
          "data": "0x000000000000000000000000000000000000007e37be2022c0914b2680000000000000000000000000000000000000000000007e37be2022c0914b2680000000",
          "blockHash": "0xfb782ac2e8cfceb9bedc3b65d64eb47b0921fd6399062c0ecbaa7d2853cfdb4f",
          "blockNumber": "0xda79ca",
          "transactionHash": "0x5e7ab0b238056963cfc5b4c3acd1fd5948fc26ebbec62de9eaa574dda8493917",
          "transactionIndex": "0x1",
          "logIndex": "0x0",
          "removed": false
        }
      ],
      "status": "0x1",
      "logsBloom": "0x00100000000000000000000000000000000000000000000000000000000000200000000080000000000000000000000040000000000000000000000000000000000000100000000000000000000040000000000000000000000000000000000000000000100000000000000000000000000002000000000000000000000000000000000000000000000000000000000000000000000000000000000000000000000000000000000000000000000000000000000000000000000000000000000000000000000000000000000000000000000000000000040000000000000000000000000000000000000000000000000000000000000000000000000000000000",
      "type": "0x2",
      "effectiveGasPrice": "0xb5117a40"
    }
  ],
  "libraries": [],
  "pending": [],
  "returns": {},
  "timestamp": 1715425403,
  "chain": 8453,
  "commit": "34fca4f"
}