{
  "transactions": [
    {
      "hash": "0xd2b100fb4fa8d7ab72d563363684c38a893aa0d0be3390c7a8be77cf0c0cec3c",
      "transactionType": "CALL",
      "contractName": "XERC20",
      "contractAddress": "0x6e05b1c7F694Fc383067164a33573b05Ba0500e8",
      "function": "setLimits(address,uint256,uint256)",
      "arguments": [
        "0x740De8fE9D75F5eD5585C1e8e5Fd6971844B5689",
        "10000000000000000000000000000000",
        "10000000000000000000000000000000"
      ],
      "transaction": {
        "type": "0x02",
        "from": "0xfadede2cfbfa7443497acacf76cfc4fe59112dbb",
        "to": "0x6e05b1c7f694fc383067164a33573b05ba0500e8",
        "gas": "0x49198",
        "value": "0x0",
        "data": "0xa08d5654000000000000000000000000740de8fe9d75f5ed5585c1e8e5fd6971844b5689000000000000000000000000000000000000007e37be2022c0914b2680000000000000000000000000000000000000000000007e37be2022c0914b2680000000",
        "nonce": "0x2c",
        "accessList": []
      },
      "additionalContracts": [],
      "isFixedGasLimit": false
    },
    {
      "hash": "0x530e58dac7bd9fe0be7aec26960bb3a709b97698fb2f1dacbb4585fbce9934b2",
      "transactionType": "CALL",
      "contractName": "CCIPxERC20Bridge",
      "contractAddress": "0x740De8fE9D75F5eD5585C1e8e5Fd6971844B5689",
      "function": "addXERC20ForOriginChain(uint64,address,address)",
      "arguments": [
        "5009297550715157269",
        "0x81A3D0677aEf7FF6fbF40e874dDD5E8A94B77ca0",
        "0x6e05b1c7F694Fc383067164a33573b05Ba0500e8"
      ],
      "transaction": {
        "type": "0x02",
        "from": "0xfadede2cfbfa7443497acacf76cfc4fe59112dbb",
        "to": "0x740de8fe9d75f5ed5585c1e8e5fd6971844b5689",
        "gas": "0x10ce1",
        "value": "0x0",
        "data": "0xc9781cbc00000000000000000000000000000000000000000000000045849994fc9c7b1500000000000000000000000081a3d0677aef7ff6fbf40e874ddd5e8a94b77ca00000000000000000000000006e05b1c7f694fc383067164a33573b05ba0500e8",
        "nonce": "0x2d",
        "accessList": []
      },
      "additionalContracts": [],
      "isFixedGasLimit": false
    },
    {
      "hash": "0x3eb9deb959330b091c5232433afdec30d6cce7fe7e119e33329627bb5aa48f0a",
      "transactionType": "CALL",
      "contractName": "CCIPxERC20Bridge",
      "contractAddress": "0x740De8fE9D75F5eD5585C1e8e5Fd6971844B5689",
      "function": "addBridgeForChain(uint64,address)",
      "arguments": [
        "5009297550715157269",
        "0x77680848810fA3410983abDC5FbF23Ee3cF9E3f1"
      ],
      "transaction": {
        "type": "0x02",
        "from": "0xfadede2cfbfa7443497acacf76cfc4fe59112dbb",
        "to": "0x740de8fe9d75f5ed5585c1e8e5fd6971844b5689",
        "gas": "0xfb27",
        "value": "0x0",
        "data": "0x53fe64f500000000000000000000000000000000000000000000000045849994fc9c7b1500000000000000000000000077680848810fa3410983abdc5fbf23ee3cf9e3f1",
        "nonce": "0x2e",
        "accessList": []
      },
      "additionalContracts": [],
      "isFixedGasLimit": false
    }
  ],
  "receipts": [
    {
      "transactionHash": "0xd2b100fb4fa8d7ab72d563363684c38a893aa0d0be3390c7a8be77cf0c0cec3c",
      "transactionIndex": "0x1",
      "blockHash": "0x80d5c86fe5df137d52171de72540eaf5a42ec4d2f30013e4b0a85d5e2f473f7f",
      "blockNumber": "0xdaa535",
      "from": "0xFaDede2cFbfA7443497acacf76cFc4Fe59112DbB",
      "to": "0x6e05b1c7F694Fc383067164a33573b05Ba0500e8",
      "cumulativeGasUsed": "0x3caf8",
      "gasUsed": "0x31fb9",
      "contractAddress": null,
      "logs": [
        {
          "address": "0x6e05b1c7F694Fc383067164a33573b05Ba0500e8",
          "topics": [
            "0x93f3bbfe8cfb354ec059175107653f49f6eb479a8622a7d83866ea015435c944",
            "0x000000000000000000000000740de8fe9d75f5ed5585c1e8e5fd6971844b5689"
          ],
          "data": "0x000000000000000000000000000000000000007e37be2022c0914b2680000000000000000000000000000000000000000000007e37be2022c0914b2680000000",
          "blockHash": "0x80d5c86fe5df137d52171de72540eaf5a42ec4d2f30013e4b0a85d5e2f473f7f",
          "blockNumber": "0xdaa535",
          "transactionHash": "0xd2b100fb4fa8d7ab72d563363684c38a893aa0d0be3390c7a8be77cf0c0cec3c",
          "transactionIndex": "0x1",
          "logIndex": "0x0",
          "removed": false
        }
      ],
      "status": "0x1",
      "logsBloom": "0x00100000000000000000000000000000000002000000000000000000000000200000000000000000000000000000000040000000000000000000000000000000000000000000000000000000000040000000000000000000000000000000000000000000100000000000000000000000000000000000000000000000000000000008000000000000000000000000000000000000000000000000000000000000000000800000000000000000000000000000000000000000000000000000000000000000000000000000000000000000000000000000040000000000000000000000000000000000000000000000000000000000000000000000000000000000",
      "type": "0x2",
      "effectiveGasPrice": "0xb771150f"
    },
    {
      "transactionHash": "0x3eb9deb959330b091c5232433afdec30d6cce7fe7e119e33329627bb5aa48f0a",
      "transactionIndex": "0x3",
      "blockHash": "0x80d5c86fe5df137d52171de72540eaf5a42ec4d2f30013e4b0a85d5e2f473f7f",
      "blockNumber": "0xdaa535",
      "from": "0xFaDede2cFbfA7443497acacf76cFc4Fe59112DbB",
      "to": "0x740De8fE9D75F5eD5585C1e8e5Fd6971844B5689",
      "cumulativeGasUsed": "0x538a7",
      "gasUsed": "0xb5d5",
      "contractAddress": null,
      "logs": [],
      "status": "0x1",
      "logsBloom": "0x00000000000000000000000000000000000000000000000000000000000000000000000000000000000000000000000000000000000000000000000000000000000000000000000000000000000000000000000000000000000000000000000000000000000000000000000000000000000000000000000000000000000000000000000000000000000000000000000000000000000000000000000000000000000000000000000000000000000000000000000000000000000000000000000000000000000000000000000000000000000000000000000000000000000000000000000000000000000000000000000000000000000000000000000000000000",
      "type": "0x2",
      "effectiveGasPrice": "0xb771150f"
    }
  ],
  "libraries": [],
  "pending": [
    "0x530e58dac7bd9fe0be7aec26960bb3a709b97698fb2f1dacbb4585fbce9934b2"
  ],
  "returns": {},
  "timestamp": 1715447635,
  "chain": 8453,
  "commit": "6b09d11"
}