{
  "transactions": [
    {
      "hash": "0xf32d3a2b4a72d3d42486668719b1bf433b2c4b59c85adca796807bb569e60b85",
      "transactionType": "CALL",
      "contractName": "XERC20",
      "contractAddress": "0x6e05b1c7F694Fc383067164a33573b05Ba0500e8",
      "function": "setLimits(address,uint256,uint256)",
      "arguments": [
        "0x740De8fE9D75F5eD5585C1e8e5Fd6971844B5689",
        "10000000000000000000000000000000",
        "10000000000000000000000000000000"
      ],
      "transaction": {
        "type": "0x02",
        "from": "0xfadede2cfbfa7443497acacf76cfc4fe59112dbb",
        "to": "0x6e05b1c7f694fc383067164a33573b05ba0500e8",
        "gas": "0x12418",
        "value": "0x0",
        "data": "0xa08d5654000000000000000000000000740de8fe9d75f5ed5585c1e8e5fd6971844b5689000000000000000000000000000000000000007e37be2022c0914b2680000000000000000000000000000000000000000000007e37be2022c0914b2680000000",
        "nonce": "0x2f",
        "accessList": []
      },
      "additionalContracts": [],
      "isFixedGasLimit": false
    },
    {
      "hash": "0xd37f5f587d0ad86ee6083f2f367b27a4969715d9da313072648f44cad4834b35",
      "transactionType": "CALL",
      "contractName": "CCIPxERC20Bridge",
      "contractAddress": "0x740De8fE9D75F5eD5585C1e8e5Fd6971844B5689",
      "function": "addXERC20ForOriginChain(uint64,address,address)",
      "arguments": [
        "5009297550715157269",
        "0x81A3D0677aEf7FF6fbF40e874dDD5E8A94B77ca0",
        "0x6e05b1c7F694Fc383067164a33573b05Ba0500e8"
      ],
      "transaction": {
        "type": "0x02",
        "from": "0xfadede2cfbfa7443497acacf76cfc4fe59112dbb",
        "to": "0x740de8fe9d75f5ed5585c1e8e5fd6971844b5689",
        "gas": "0x9291",
        "value": "0x0",
        "data": "0xc9781cbc00000000000000000000000000000000000000000000000045849994fc9c7b1500000000000000000000000081a3d0677aef7ff6fbf40e874ddd5e8a94b77ca00000000000000000000000006e05b1c7f694fc383067164a33573b05ba0500e8",
        "nonce": "0x30",
        "accessList": []
      },
      "additionalContracts": [],
      "isFixedGasLimit": false
    },
    {
      "hash": "0x4759fc86c256f552f8c6af89dd413dea23bb09101e71fd95a5930f10045ef07d",
      "transactionType": "CALL",
      "contractName": "CCIPxERC20Bridge",
      "contractAddress": "0x740De8fE9D75F5eD5585C1e8e5Fd6971844B5689",
      "function": "addBridgeForChain(uint64,address)",
      "arguments": [
        "5009297550715157269",
        "0x77680848810fA3410983abDC5FbF23Ee3cF9E3f1"
      ],
      "transaction": {
        "type": "0x02",
        "from": "0xfadede2cfbfa7443497acacf76cfc4fe59112dbb",
        "to": "0x740de8fe9d75f5ed5585c1e8e5fd6971844b5689",
        "gas": "0x983e",
        "value": "0x0",
        "data": "0x53fe64f500000000000000000000000000000000000000000000000045849994fc9c7b1500000000000000000000000077680848810fa3410983abdc5fbf23ee3cf9e3f1",
        "nonce": "0x31",
        "accessList": []
      },
      "additionalContracts": [],
      "isFixedGasLimit": false
    }
  ],
  "receipts": [
    {
      "transactionHash": "0xf32d3a2b4a72d3d42486668719b1bf433b2c4b59c85adca796807bb569e60b85",
      "transactionIndex": "0x2",
      "blockHash": "0x2a1c6788a65d33382562af63f51836e6b0f61ffdee35b702623e8e5bae0cae4e",
      "blockNumber": "0xdaa551",
      "from": "0xFaDede2cFbfA7443497acacf76cFc4Fe59112DbB",
      "to": "0x6e05b1c7F694Fc383067164a33573b05Ba0500e8",
      "cumulativeGasUsed": "0x1c50c",
      "gasUsed": "0xc7b9",
      "contractAddress": null,
      "logs": [
        {
          "address": "0x6e05b1c7F694Fc383067164a33573b05Ba0500e8",
          "topics": [
            "0x93f3bbfe8cfb354ec059175107653f49f6eb479a8622a7d83866ea015435c944",
            "0x000000000000000000000000740de8fe9d75f5ed5585c1e8e5fd6971844b5689"
          ],
          "data": "0x000000000000000000000000000000000000007e37be2022c0914b2680000000000000000000000000000000000000000000007e37be2022c0914b2680000000",
          "blockHash": "0x2a1c6788a65d33382562af63f51836e6b0f61ffdee35b702623e8e5bae0cae4e",
          "blockNumber": "0xdaa551",
          "transactionHash": "0xf32d3a2b4a72d3d42486668719b1bf433b2c4b59c85adca796807bb569e60b85",
          "transactionIndex": "0x2",
          "logIndex": "0x0",
          "removed": false
        }
      ],
      "status": "0x1",
      "logsBloom": "0x00100000000000000000000000000000000002000000000000000000000000200000000000000000000000000000000040000000000000000000000000000000000000000000000000000000000040000000000000000000000000000000000000000000100000000000000000000000000000000000000000000000000000000008000000000000000000000000000000000000000000000000000000000000000000800000000000000000000000000000000000000000000000000000000000000000000000000000000000000000000000000000040000000000000000000000000000000000000000000000000000000000000000000000000000000000",
      "type": "0x2",
      "effectiveGasPrice": "0xb74a4d2c"
    },
    {
      "transactionHash": "0xd37f5f587d0ad86ee6083f2f367b27a4969715d9da313072648f44cad4834b35",
      "transactionIndex": "0x3",
      "blockHash": "0x2a1c6788a65d33382562af63f51836e6b0f61ffdee35b702623e8e5bae0cae4e",
      "blockNumber": "0xdaa551",
      "from": "0xFaDede2cFbfA7443497acacf76cFc4Fe59112DbB",
      "to": "0x740De8fE9D75F5eD5585C1e8e5Fd6971844B5689",
      "cumulativeGasUsed": "0x22f2a",
      "gasUsed": "0x6a1e",
      "contractAddress": null,
      "logs": [],
      "status": "0x1",
      "logsBloom": "0x00000000000000000000000000000000000000000000000000000000000000000000000000000000000000000000000000000000000000000000000000000000000000000000000000000000000000000000000000000000000000000000000000000000000000000000000000000000000000000000000000000000000000000000000000000000000000000000000000000000000000000000000000000000000000000000000000000000000000000000000000000000000000000000000000000000000000000000000000000000000000000000000000000000000000000000000000000000000000000000000000000000000000000000000000000000",
      "type": "0x2",
      "effectiveGasPrice": "0xb74a4d2c"
    },
    {
      "transactionHash": "0x4759fc86c256f552f8c6af89dd413dea23bb09101e71fd95a5930f10045ef07d",
      "transactionIndex": "0x4",
      "blockHash": "0x2a1c6788a65d33382562af63f51836e6b0f61ffdee35b702623e8e5bae0cae4e",
      "blockNumber": "0xdaa551",
      "from": "0xFaDede2cFbfA7443497acacf76cFc4Fe59112DbB",
      "to": "0x740De8fE9D75F5eD5585C1e8e5Fd6971844B5689",
      "cumulativeGasUsed": "0x29743",
      "gasUsed": "0x6819",
      "contractAddress": null,
      "logs": [],
      "status": "0x1",
      "logsBloom": "0x00000000000000000000000000000000000000000000000000000000000000000000000000000000000000000000000000000000000000000000000000000000000000000000000000000000000000000000000000000000000000000000000000000000000000000000000000000000000000000000000000000000000000000000000000000000000000000000000000000000000000000000000000000000000000000000000000000000000000000000000000000000000000000000000000000000000000000000000000000000000000000000000000000000000000000000000000000000000000000000000000000000000000000000000000000000",
      "type": "0x2",
      "effectiveGasPrice": "0xb74a4d2c"
    }
  ],
  "libraries": [],
  "pending": [],
  "returns": {},
  "timestamp": 1715447690,
  "chain": 8453,
  "commit": "6b09d11"
}